:020000040800F2
:1000000000500020C9020008190300081903000865
:100010001903000819030008190300080000000074
:1000200000000000000000000000000019030008AC
:100030001903000800000000190300081903000854
:100040001903000819030008190300081903000820
:100050001903000819030008190300081903000810
:100060001903000819030008190300081903000800
:1000700019030008190300081903000819030008F0
:1000800019030008190300081903000819030008E0
:1000900019030008190300081903000819030008D0
:1000A00019030008190300081903000819030008C0
:1000B00019030008190300081903000819030008B0
:1000C00019030008190300081903000819030008A0
:1000D0001903000819030008190300081903000890
:1000E00019030008190300080000000019030008A4
:1000F0001903000819030008190300081903000870
:10010000190300081903000819030008190300085F
:10011000190300081903000819030008190300084F
:10012000190300081903000819030008190300083F
:1001300010B5054C237833B9044B13B10448AFF321
:1001400000800123237010BD00000020000000008B
:100150006403000808B5034B1BB103490348AFF320
:10016000008008BD000000000400002064030008B7
:1001700080B400AF0A4B1B68094A43F001031360C7
:10018000074B074A5B68536000BF054B1B6803F0D1
:100190000203002BF9D000BF00BFBD4680BC7047F2
:1001A0000010024080B483B000AF0346FB710B46E1
:1001B000BB7113467B71FB79002B1BD17B79002B24
:1001C0000CD0012B54D12D4B5B69BA79012101FA76
:1001D00002F21146294A0B43536149E0274B5B6900
:1001E000BA79012101FA02F2D2431146234A0B40A7
:1001F00053613DE0FB79022B1BD17B79002B0CD0A6
:10020000012B35D11D4B9B69BA79012101FA02F20C
:1002100011461A4A0B4393612AE0184B9B69BA793D
:10022000012101FA02F2D2431146144A0B409361B4
:100230001EE0FB79012B1BD17B79002B0CD0012B0D
:1002400016D10E4BDB69BA79012101FA02F211468F
:100250000A4A0B43D3610BE0084BDB69BA790121F1
:1002600001FA02F2D2431146044A0B40D36100BFA7
:1002700000BF0C37BD4680BC704700BF0010024075
:1002800080B500AFFFF774FF012200210020FFF7C7
:1002900089FF012201210020FFF784FF01220E21A6
:1002A0000020FFF77FFF01220B210120FFF77AFFDB
:1002B000012209210220FFF775FF01220C210220F3
:1002C000FFF770FFFEE700000D488546AFF30080A2
:1002D0000C480D490D4A002302E0D458C4500433A1
:1002E000C4188C42F9D30A4A0A4C002301E0136077
:1002F0000432A242FBD300F011F8FFF7C1FFFEE782
:1003000000500020000000200000002084030008AE
:10031000000000201C000020FEE7000070B5002651
:100320000C4D0D4C641BA410A64209D100F01AF824
:1003300000260A4D0A4C641BA410A64205D170BDCC
:1003400055F8043B98470136EEE755F8043B9847CB
:100350000136F2E77C0300087C0300087C030008F8
:1003600080030008F8B500BFF8BC08BC9E46704783
:0C037000F8B500BFF8BC08BC9E46704702
:04037C00550100081F
:04038000310100083F
:04000005080002C924
:00000001FF
